{
  "address": "0x0165878A594ca255338adfa4d48449f69242Eb8F",
  "abi": [
    {
      "inputs": [],
      "stateMutability": "nonpayable",
      "type": "constructor"
    },
    {
      "anonymous": false,
      "inputs": [
        {
          "indexed": true,
          "internalType": "address",
          "name": "owner",
          "type": "address"
        },
        {
          "indexed": true,
          "internalType": "address",
          "name": "spender",
          "type": "address"
        },
        {
          "indexed": true,
          "internalType": "uint256",
          "name": "id",
          "type": "uint256"
        }
      ],
      "name": "Approval",
      "type": "event"
    },
    {
      "anonymous": false,
      "inputs": [
        {
          "indexed": true,
          "internalType": "address",
          "name": "owner",
          "type": "address"
        },
        {
          "indexed": true,
          "internalType": "address",
          "name": "operator",
          "type": "address"
        },
        {
          "indexed": false,
          "internalType": "bool",
          "name": "approved",
          "type": "bool"
        }
      ],
      "name": "ApprovalForAll",
      "type": "event"
    },
    {
      "anonymous": false,
      "inputs": [
        {
          "indexed": true,
          "internalType": "address",
          "name": "previousOwner",
          "type": "address"
        },
        {
          "indexed": true,
          "internalType": "address",
          "name": "newOwner",
          "type": "address"
        }
      ],
      "name": "OwnershipTransferred",
      "type": "event"
    },
    {
      "anonymous": false,
      "inputs": [
        {
          "indexed": true,
          "internalType": "address",
          "name": "from",
          "type": "address"
        },
        {
          "indexed": true,
          "internalType": "address",
          "name": "to",
          "type": "address"
        },
        {
          "indexed": true,
          "internalType": "uint256",
          "name": "id",
          "type": "uint256"
        }
      ],
      "name": "Transfer",
      "type": "event"
    },
    {
      "inputs": [
        {
          "internalType": "address",
          "name": "spender",
          "type": "address"
        },
        {
          "internalType": "uint256",
          "name": "id",
          "type": "uint256"
        }
      ],
      "name": "approve",
      "outputs": [],
      "stateMutability": "nonpayable",
      "type": "function"
    },
    {
      "inputs": [],
      "name": "artist",
      "outputs": [
        {
          "internalType": "address",
          "name": "",
          "type": "address"
        }
      ],
      "stateMutability": "view",
      "type": "function"
    },
    {
      "inputs": [
        {
          "internalType": "address",
          "name": "owner",
          "type": "address"
        }
      ],
      "name": "balanceOf",
      "outputs": [
        {
          "internalType": "uint256",
          "name": "",
          "type": "uint256"
        }
      ],
      "stateMutability": "view",
      "type": "function"
    },
    {
      "inputs": [],
      "name": "buyAtFairPrice",
      "outputs": [],
      "stateMutability": "payable",
      "type": "function"
    },
    {
      "inputs": [],
      "name": "decreasable",
      "outputs": [
        {
          "internalType": "uint96",
          "name": "",
          "type": "uint96"
        }
      ],
      "stateMutability": "view",
      "type": "function"
    },
    {
      "inputs": [],
      "name": "decrease",
      "outputs": [],
      "stateMutability": "payable",
      "type": "function"
    },
    {
      "inputs": [],
      "name": "editionSize",
      "outputs": [
        {
          "internalType": "uint256",
          "name": "",
          "type": "uint256"
        }
      ],
      "stateMutability": "view",
      "type": "function"
    },
    {
      "inputs": [],
      "name": "fairPrice",
      "outputs": [
        {
          "internalType": "uint256",
          "name": "",
          "type": "uint256"
        }
      ],
      "stateMutability": "view",
      "type": "function"
    },
    {
      "inputs": [
        {
          "internalType": "uint256",
          "name": "",
          "type": "uint256"
        }
      ],
      "name": "getApproved",
      "outputs": [
        {
          "internalType": "address",
          "name": "",
          "type": "address"
        }
      ],
      "stateMutability": "view",
      "type": "function"
    },
    {
      "inputs": [],
      "name": "increasable",
      "outputs": [
        {
          "internalType": "uint96",
          "name": "",
          "type": "uint96"
        }
      ],
      "stateMutability": "view",
      "type": "function"
    },
    {
      "inputs": [],
      "name": "increase",
      "outputs": [],
      "stateMutability": "payable",
      "type": "function"
    },
    {
      "inputs": [
        {
          "internalType": "address",
          "name": "",
          "type": "address"
        },
        {
          "internalType": "address",
          "name": "",
          "type": "address"
        }
      ],
      "name": "isApprovedForAll",
      "outputs": [
        {
          "internalType": "bool",
          "name": "",
          "type": "bool"
        }
      ],
      "stateMutability": "view",
      "type": "function"
    },
    {
      "inputs": [],
      "name": "isOpenHours",
      "outputs": [
        {
          "internalType": "bool",
          "name": "",
          "type": "bool"
        }
      ],
      "stateMutability": "view",
      "type": "function"
    },
    {
      "inputs": [
        {
          "internalType": "uint256",
          "name": "_tokenId",
          "type": "uint256"
        }
      ],
      "name": "mint",
      "outputs": [],
      "stateMutability": "payable",
      "type": "function"
    },
    {
      "inputs": [],
      "name": "name",
      "outputs": [
        {
          "internalType": "string",
          "name": "",
          "type": "string"
        }
      ],
      "stateMutability": "view",
      "type": "function"
    },
    {
      "inputs": [],
      "name": "owner",
      "outputs": [
        {
          "internalType": "address",
          "name": "",
          "type": "address"
        }
      ],
      "stateMutability": "view",
      "type": "function"
    },
    {
      "inputs": [
        {
          "internalType": "uint256",
          "name": "id",
          "type": "uint256"
        }
      ],
      "name": "ownerOf",
      "outputs": [
        {
          "internalType": "address",
          "name": "",
          "type": "address"
        }
      ],
      "stateMutability": "view",
      "type": "function"
    },
    {
      "inputs": [],
      "name": "price",
      "outputs": [
        {
          "internalType": "uint256",
          "name": "",
          "type": "uint256"
        }
      ],
      "stateMutability": "view",
      "type": "function"
    },
    {
      "inputs": [
        {
          "internalType": "uint256",
          "name": "_tokenId",
          "type": "uint256"
        }
      ],
      "name": "renderSVG",
      "outputs": [
        {
          "internalType": "string",
          "name": "",
          "type": "string"
        }
      ],
      "stateMutability": "view",
      "type": "function"
    },
    {
      "inputs": [
        {
          "internalType": "uint256",
          "name": "_tokenId",
          "type": "uint256"
        }
      ],
      "name": "renderSVGBase64",
      "outputs": [
        {
          "internalType": "string",
          "name": "",
          "type": "string"
        }
      ],
      "stateMutability": "view",
      "type": "function"
    },
    {
      "inputs": [],
      "name": "renounceOwnership",
      "outputs": [],
      "stateMutability": "nonpayable",
      "type": "function"
    },
    {
      "inputs": [],
      "name": "retract",
      "outputs": [],
      "stateMutability": "nonpayable",
      "type": "function"
    },
    {
      "inputs": [
        {
          "internalType": "address",
          "name": "from",
          "type": "address"
        },
        {
          "internalType": "address",
          "name": "to",
          "type": "address"
        },
        {
          "internalType": "uint256",
          "name": "id",
          "type": "uint256"
        }
      ],
      "name": "safeTransferFrom",
      "outputs": [],
      "stateMutability": "payable",
      "type": "function"
    },
    {
      "inputs": [
        {
          "internalType": "address",
          "name": "from",
          "type": "address"
        },
        {
          "internalType": "address",
          "name": "to",
          "type": "address"
        },
        {
          "internalType": "uint256",
          "name": "id",
          "type": "uint256"
        },
        {
          "internalType": "bytes",
          "name": "data",
          "type": "bytes"
        }
      ],
      "name": "safeTransferFrom",
      "outputs": [],
      "stateMutability": "payable",
      "type": "function"
    },
    {
      "inputs": [
        {
          "internalType": "address",
          "name": "operator",
          "type": "address"
        },
        {
          "internalType": "bool",
          "name": "approved",
          "type": "bool"
        }
      ],
      "name": "setApprovalForAll",
      "outputs": [],
      "stateMutability": "nonpayable",
      "type": "function"
    },
    {
      "inputs": [
        {
          "components": [
            {
              "internalType": "uint256",
              "name": "_editionTokenRangeStart",
              "type": "uint256"
            },
            {
              "internalType": "uint256",
              "name": "_editionSize",
              "type": "uint256"
            },
            {
              "internalType": "bytes32",
              "name": "_title",
              "type": "bytes32"
            },
            {
              "internalType": "bytes32[]",
              "name": "_bodyText",
              "type": "bytes32[]"
            },
            {
              "internalType": "bytes32[]",
              "name": "_smallPrintText",
              "type": "bytes32[]"
            },
            {
              "internalType": "bytes32[]",
              "name": "_statusText",
              "type": "bytes32[]"
            }
          ],
          "internalType": "struct ConceptStruct.Concept[]",
          "name": "_concepts",
          "type": "tuple[]"
        }
      ],
      "name": "setConceptData",
      "outputs": [],
      "stateMutability": "nonpayable",
      "type": "function"
    },
    {
      "inputs": [
        {
          "internalType": "bytes4",
          "name": "interfaceId",
          "type": "bytes4"
        }
      ],
      "name": "supportsInterface",
      "outputs": [
        {
          "internalType": "bool",
          "name": "",
          "type": "bool"
        }
      ],
      "stateMutability": "view",
      "type": "function"
    },
    {
      "inputs": [],
      "name": "symbol",
      "outputs": [
        {
          "internalType": "string",
          "name": "",
          "type": "string"
        }
      ],
      "stateMutability": "view",
      "type": "function"
    },
    {
      "inputs": [
        {
          "internalType": "uint256",
          "name": "_tokenId",
          "type": "uint256"
        }
      ],
      "name": "tokenURI",
      "outputs": [
        {
          "internalType": "string",
          "name": "",
          "type": "string"
        }
      ],
      "stateMutability": "view",
      "type": "function"
    },
    {
      "inputs": [],
      "name": "totalSupply",
      "outputs": [
        {
          "internalType": "uint256",
          "name": "",
          "type": "uint256"
        }
      ],
      "stateMutability": "view",
      "type": "function"
    },
    {
      "inputs": [
        {
          "internalType": "address",
          "name": "from",
          "type": "address"
        },
        {
          "internalType": "address",
          "name": "to",
          "type": "address"
        },
        {
          "internalType": "uint256",
          "name": "id",
          "type": "uint256"
        }
      ],
      "name": "transferFrom",
      "outputs": [],
      "stateMutability": "payable",
      "type": "function"
    },
    {
      "inputs": [
        {
          "internalType": "address",
          "name": "newOwner",
          "type": "address"
        }
      ],
      "name": "transferOwnership",
      "outputs": [],
      "stateMutability": "nonpayable",
      "type": "function"
    },
    {
      "inputs": [],
      "name": "transfersLeft",
      "outputs": [
        {
          "internalType": "uint256",
          "name": "",
          "type": "uint256"
        }
      ],
      "stateMutability": "view",
      "type": "function"
    },
    {
      "inputs": [],
      "name": "updateTransitory",
      "outputs": [],
      "stateMutability": "nonpayable",
      "type": "function"
    },
    {
      "inputs": [
        {
          "internalType": "address",
          "name": "_address",
          "type": "address"
        }
      ],
      "name": "whereIs",
      "outputs": [
        {
          "internalType": "uint256",
          "name": "x",
          "type": "uint256"
        },
        {
          "internalType": "uint256",
          "name": "y",
          "type": "uint256"
        },
        {
          "internalType": "uint256",
          "name": "z",
          "type": "uint256"
        }
      ],
      "stateMutability": "pure",
      "type": "function"
    },
    {
      "inputs": [
        {
          "internalType": "address payable",
          "name": "_to",
          "type": "address"
        }
      ],
      "name": "withdraw",
      "outputs": [],
      "stateMutability": "nonpayable",
      "type": "function"
    }
  ],
  "transactionHash": "0xbf49027ec89ef6f8abcae215da76d1470cebe0d4faaf01a6d9612b48efe8055a",
  "args": [],
  "numDeployments": 1,
  "solcInputHash": "2eda939fbe9fe7aa29b357b9879ad57d",
  "bytecode": "0x60006007908155602a60085567016345785d8a0000600d55600e80546001600160c01b03191677039716ee06e7aaee571c71c7000000000000000000000001179055600f55611c00604052611b4d608081815290620075da60a039601090620000699082620013dd565b503480156200007757600080fd5b506040518060400160405280600681526020016542454546204960d01b815250604051806040016040528060048152602001632122a2a360e11b815250620000ce620000c86200011e60201b60201c565b62000122565b6001620000dc8382620013dd565b506002620000eb8282620013dd565b5050506200010141602a6200017260201b60201c565b600780549060006200011383620014bf565b9190505550620015e5565b3390565b600080546001600160a01b038381166001600160a01b0319831681178455604051919092169283917f8be0079c531659141344cd1fd0a4f28419497f9722a3daafe3b4186f6b6457e09190a35050565b6001600160a01b038216620001c25760405162461bcd60e51b81526020600482015260116024820152701253959053125117d49150d25412515395607a1b60448201526064015b60405180910390fd5b6000818152600560205260409020546001600160a01b0316156200021a5760405162461bcd60e51b815260206004820152600e60248201526d1053149150511657d3525395115160921b6044820152606401620001b9565b600062000229818484620002a5565b9050806200023657505050565b6001600160a01b038316600081815260066020908152604080832080546001019055858352600590915280822080546001600160a01b031916841790555184929190600080516020620075ba833981519152908290a4620002a0600084846001600160e01b038416565b505050565b600060098203620002ed576000805b62026db8811015620002e55781620002cc81620014bf565b9250508080620002dc90620014bf565b915050620002b4565b505062001137565b60168214801562000308575062000306600243620014f1565b155b806200032c5750601f821480156200032c575062000328600243620014f1565b6001145b156200036e5760405162461bcd60e51b815260206004820152601060248201526f48616c66206f66207468652074696d6560801b6044820152606401620001b9565b602a820362000393576001600160a01b03831641146200038d57600080fd5b62001137565b60038203620003e757620003a662001142565b6200038d5760405162461bcd60e51b815260206004820152601060248201526f10dd5c9c995b9d1b1e4818db1bdcd95960821b6044820152606401620001b9565b6004821480620003f75750601782145b80620004035750602582145b806200040f5750602082145b806200041b5750600c82145b80620004275750602482145b80620004335750602382145b806200043f5750600882145b806200044b5750602982145b80620004575750601282145b80620004635750601c82145b156200087e57606083901b600483148015620004c057507fdead00000000000000000000000000000000beef0000000000000000000000007fffff00000000000000000000000000000000ffff0000000000000000000000008216145b806200051957506017831480156200051957507fbeef00000000000000000000000000000000beef0000000000000000000000007fffff00000000000000000000000000000000ffff0000000000000000000000008216145b806200057257506025831480156200057257507ffeed00000000000000000000000000000000beef0000000000000000000000007fffff00000000000000000000000000000000ffff0000000000000000000000008216145b80620005cb5750602083148015620005cb57507fdeaf00000000000000000000000000000000beef0000000000000000000000007fffff00000000000000000000000000000000ffff0000000000000000000000008216145b80620006245750600c831480156200062457507fbad000000000000000000000000000000000beef0000000000000000000000007ffff000000000000000000000000000000000ffff0000000000000000000000008216145b806200067d57506024831480156200067d57507fbeef00000000000000000000000000000000face0000000000000000000000007fffff00000000000000000000000000000000ffff0000000000000000000000008216145b80620006d65750602383148015620006d657507fbabe00000000000000000000000000000000beef0000000000000000000000007fffff00000000000000000000000000000000ffff0000000000000000000000008216145b806200072f57506008831480156200072f57507fbeef00000000000000000000000000000000babe0000000000000000000000007fffff00000000000000000000000000000000ffff0000000000000000000000008216145b806200078857506029831480156200078857507fbad000000000000000000000000000000000babe0000000000000000000000007ffff000000000000000000000000000000000ffff0000000000000000000000008216145b80620007e15750601283148015620007e157507fdeaf00000000000000000000000000000000babe0000000000000000000000007fffff00000000000000000000000000000000ffff0000000000000000000000008216145b806200083a5750601c831480156200083a57507fdead00000000000000000000000000000000babe0000000000000000000000007fffff00000000000000000000000000000000ffff0000000000000000000000008216145b1515600003620008775760405162461bcd60e51b81526020600482015260076024820152662737903132b2b360c91b6044820152606401620001b9565b5062001137565b600e821015801562000891575060108211155b1562000a4b576000600e8314620008aa57600e620008ad565b600f5b90506000600e8414620008d357600f8414620008cb57600f620008d6565b6010620008d6565b60105b6000838152600b6020526040902054909150431480156200090457506000818152600b602052604090205443145b1562000a0e576000828152600560205260409020546001600160a01b0316156200096257600082815260056020908152604080832054600c909252909120546200095c916001600160a01b0390811691168462001171565b62000986565b6000828152600c602052604090205462000986906001600160a01b0316836200123b565b6000818152600560205260409020546001600160a01b031615620009de57600081815260056020908152604080832054600c90925290912054620009d8916001600160a01b0390811691168362001171565b62000a02565b6000818152600c602052604090205462000a02906001600160a01b0316826200123b565b6001925050506200113b565b5050506000818152600b60209081526040808320439055600c909152812080546001600160a01b0319166001600160a01b0385161790556200113b565b601882148062000a5b5750601982145b1562000b615760006018831462000a7457601862000a77565b60195b905061100062000a88818662001508565b60008381526005602052604090205462000aaf90611000906001600160a01b031662001508565b62000abb919062001531565b6001600160a01b031610801562000b20575061100062000ae481610fff609488901c1662001508565b60008381526005602052604090205462000b09906110009060941c610fff1662001508565b62000b15919062001531565b6001600160a01b0316105b1515600003620008775760405162461bcd60e51b815260206004820152600b60248201526a10dbd9195c195b99195b9d60aa1b6044820152606401620001b9565b600582148062000b715750600682145b1562000c895760006005831462000b8a57600562000b8d565b60065b6000818152600560205260408120549192506001600160601b0319606092831b169186901b905b602881101562000c7f57601062000bcd8260046200155b565b62000be991906001600160601b03198516901c60601c62001508565b6001600160a01b0316601062000c018360046200155b565b62000c1d91906001600160601b03198716901c60601c62001508565b6001600160a01b03160362000c6a5760405162461bcd60e51b81526020600482015260126024820152714d757475616c6c79206578636c757369766560701b6044820152606401620001b9565b8062000c7681620014bf565b91505062000bb4565b5050505062001137565b601a820362000d6057606083901b6000805b602881101562000d5b57601062000cb48260046200155b565b62000cd091906001600160601b03198616901c60601c62001508565b6001600160a01b03161562000d5b57601062000cee8260046200155b565b62000d0a91906001600160601b03198616901c60601c62001508565b6001600160a01b0316600f0362000d2b578162000d27816200157b565b9250505b600d8261ffff16111562000d4657600193505050506200113b565b8062000d5281620014bf565b91505062000c9b565b600080fd5b600a820362000e3557606083901b6000805b602881101562000d5b57601062000d8b8260046200155b565b62000da791906001600160601b03198616901c60601c62001508565b6001600160a01b0316600f031562000d5b57601062000dc88260046200155b565b62000de491906001600160601b03198616901c60601c62001508565b6001600160a01b031660000362000e05578162000e01816200157b565b9250505b600d8261ffff16111562000e2057600193505050506200113b565b8062000e2c81620014bf565b91505062000d72565b6027820362000eb957606083901b6000805b602881101562000d5b57601062000e608260046200155b565b62000e7c91906001600160601b03198616901c60601c62001508565b6001600160a01b03166001901b821791508161ffff0362000ea457600193505050506200113b565b8062000eb081620014bf565b91505062000e47565b6002820362000ecf57823b806200087757600080fd5b600d820362000ef357823b801562000ee657600080fd5b3233146200087757600080fd5b6011820362000f7457600f541562000f2257600f805490600062000f17836200159f565b919050555062001137565b6011600081905260056020527fb4e18992ad424cdedc46668609f2bafcf665a8d99577618d5923c69264d9cf5f5462000f6b916001600160a01b039091169061dead9062001171565b5060006200113b565b602882036200101b57670de0b6b3a7640000341015801562000fb1575062000fad67016345785d8a0000670de0b6b3a7640000620015b9565b3411155b62000fbb57600080fd5b6040516000908190670de0b6b3a7640000908281818185825af1925050503d806000811462001007576040519150601f19603f3d011682016040523d82523d6000602084013e6200100c565b606091505b50509050806200087757600080fd5b602282036200103a576001600160a01b03831641146200038d57600080fd5b601d82036200113757601d600090815260056020527f348e8fe0716b12afdd2e814ae0b8b1bb9b5c7a197ef418c73b8bdd93bee14de5546001600160601b0319606091821b16919085901b905b600381101562001133576010620010a0826003620015cf565b620010ad906028620015cf565b620010ba9060046200155b565b620010d691906001600160601b03198516901c60601c62001508565b6001600160a01b03166010620010ee8360046200155b565b6200110a91906001600160601b03198716901c60601c62001508565b6001600160a01b0316146200111e57600080fd5b806200112a81620014bf565b91505062001087565b5050505b5060015b9392505050565b600080620011546201518042620014f1565b9050617e9081101580156200116b575061ef108111155b91505090565b6001600160a01b038216620011bd5760405162461bcd60e51b81526020600482015260116024820152701253959053125117d49150d25412515395607a1b6044820152606401620001b9565b6001600160a01b0380841660008181526006602090815260408083208054600019019055938616808352848320805460010190558583526005825284832080546001600160a01b0319908116831790915560039092528483208054909216909155925184939291600080516020620075ba83398151915291a4505050565b6001600160a01b038216620012875760405162461bcd60e51b81526020600482015260116024820152701253959053125117d49150d25412515395607a1b6044820152606401620001b9565b6000818152600560205260409020546001600160a01b031615620012df5760405162461bcd60e51b815260206004820152600e60248201526d1053149150511657d3525395115160921b6044820152606401620001b9565b6001600160a01b038216600081815260066020908152604080832080546001019055848352600590915280822080546001600160a01b031916841790555183929190600080516020620075ba833981519152908290a45050565b634e487b7160e01b600052604160045260246000fd5b600181811c908216806200136457607f821691505b6020821081036200138557634e487b7160e01b600052602260045260246000fd5b50919050565b601f821115620002a057600081815260208120601f850160051c81016020861015620013b45750805b601f850160051c820191505b81811015620013d557828155600101620013c0565b505050505050565b81516001600160401b03811115620013f957620013f962001339565b62001411816200140a84546200134f565b846200138b565b602080601f831160018114620014495760008415620014305750858301515b600019600386901b1c1916600185901b178555620013d5565b600085815260208120601f198616915b828110156200147a5788860151825594840194600190910190840162001459565b5085821015620014995787850151600019600388901b60f8161c191681555b5050505050600190811b01905550565b634e487b7160e01b600052601160045260246000fd5b600060018201620014d457620014d4620014a9565b5060010190565b634e487b7160e01b600052601260045260246000fd5b600082620015035762001503620014db565b500690565b60006001600160a01b0383811680620015255762001525620014db565b92169190910692915050565b6001600160a01b03818116838216019080821115620015545762001554620014a9565b5092915050565b8082028115828204841417620015755762001575620014a9565b92915050565b600061ffff808316818103620015955762001595620014a9565b6001019392505050565b600081620015b157620015b1620014a9565b506000190190565b80820180821115620015755762001575620014a9565b81810381811115620015755762001575620014a9565b615fc580620015f56000396000f3fe60806040526004361061024f5760003560e01c8063944221d511610138578063d1db019a116100b0578063e8927fbc1161007f578063f2fde38b11610064578063f2fde38b14610671578063f4ed0f4614610691578063ff750ae3146106a757600080fd5b8063e8927fbc1461062e578063e985e9c51461063657600080fd5b8063d1db019a146105b5578063d732d955146105d5578063dc244a23146105dd578063dcb624bd146105f357600080fd5b8063a22cb46511610107578063b88d4fde116100ec578063b88d4fde14610562578063c87b56dd14610575578063d12a4c981461059557600080fd5b8063a22cb4651461052d578063a520e23c1461054d57600080fd5b8063944221d5146104b457806395d89b41146104e9578063a035b1fe146104fe578063a0712d681461051a57600080fd5b806347f57b32116101cb5780635ca2ddf11161019a57806370a082311161017f57806370a082311461047f578063715018a61461049f5780638da5cb5b1461039557600080fd5b80635ca2ddf11461043f5780636352211e1461045f57600080fd5b806347f57b32146103c05780634e67e779146103d55780634f4d61aa146103dd57806351cff8d91461041f57600080fd5b806318160ddd1161022257806323b872dd1161020757806323b872dd1461036f57806342842e0e1461038257806343bc16121461039557600080fd5b806318160ddd146103355780631a9ca8d21461035957600080fd5b806301ffc9a71461025457806306fdde0314610289578063081812fc146102ab578063095ea7b314610313575b600080fd5b34801561026057600080fd5b5061027461026f366004614c21565b6106bc565b60405190151581526020015b60405180910390f35b34801561029557600080fd5b5061029e6107a1565b6040516102809190614c62565b3480156102b757600080fd5b506102ee6102c6366004614cb3565b60036020526000908152604090205473ffffffffffffffffffffffffffffffffffffffff1681565b60405173ffffffffffffffffffffffffffffffffffffffff9091168152602001610280565b34801561031f57600080fd5b5061033361032e366004614cee565b61082f565b005b34801561034157600080fd5b5061034b60075481565b604051908152602001610280565b34801561036557600080fd5b5061034b600f5481565b61033361037d366004614d1a565b61097e565b610333610390366004614d1a565b6109b4565b3480156103a157600080fd5b5060005473ffffffffffffffffffffffffffffffffffffffff166102ee565b3480156103cc57600080fd5b50610333610b44565b610333610bd6565b3480156103e957600080fd5b50600e54610402906bffffffffffffffffffffffff1681565b6040516bffffffffffffffffffffffff9091168152602001610280565b34801561042b57600080fd5b5061033361043a366004614d5b565b610c96565b34801561044b57600080fd5b5061029e61045a366004614cb3565b610d2b565b34801561046b57600080fd5b506102ee61047a366004614cb3565b610dd6565b34801561048b57600080fd5b5061034b61049a366004614d5b565b610f05565b3480156104ab57600080fd5b50610333610f5e565b3480156104c057600080fd5b50600e54610402906c0100000000000000000000000090046bffffffffffffffffffffffff1681565b3480156104f557600080fd5b5061029e610f70565b34801561050a57600080fd5b5061034b67016345785d8a000081565b610333610528366004614cb3565b610f7d565b34801561053957600080fd5b50610333610548366004614d78565b610ffb565b34801561055957600080fd5b50610274611092565b610333610570366004614db6565b6110be565b34801561058157600080fd5b5061029e610590366004614cb3565b611243565b3480156105a157600080fd5b5061029e6105b0366004614cb3565b611487565b3480156105c157600080fd5b506103336105d0366004614f8b565b61152b565b610333611655565b3480156105e957600080fd5b5061034b600d5481565b3480156105ff57600080fd5b5061061361060e366004614d5b565b6116b4565b60408051938452602084019290925290820152606001610280565b610333611762565b34801561064257600080fd5b506102746106513660046150fd565b600460209081526000928352604080842090915290825290205460ff1681565b34801561067d57600080fd5b5061033361068c366004614d5b565b611780565b34801561069d57600080fd5b5061034b60085481565b3480156106b357600080fd5b50610333611837565b60007f01ffc9a7000000000000000000000000000000000000000000000000000000007fffffffff000000000000000000000000000000000000000000000000000000008316148061074f57507f80ac58cd000000000000000000000000000000000000000000000000000000007fffffffff000000000000000000000000000000000000000000000000000000008316145b8061079b57507f5b5e139f000000000000000000000000000000000000000000000000000000007fffffffff000000000000000000000000000000000000000000000000000000008316145b92915050565b600180546107ae9061512b565b80601f01602080910402602001604051908101604052809291908181526020018280546107da9061512b565b80156108275780601f106107fc57610100808354040283529160200191610827565b820191906000526020600020905b81548152906001019060200180831161080a57829003601f168201915b505050505081565b60008181526005602052604090205473ffffffffffffffffffffffffffffffffffffffff1633811480610892575073ffffffffffffffffffffffffffffffffffffffff8116600090815260046020908152604080832033845290915290205460ff165b6108fd576040517f08c379a000000000000000000000000000000000000000000000000000000000815260206004820152600e60248201527f4e4f545f415554484f52495a454400000000000000000000000000000000000060448201526064015b60405180910390fd5b60008281526003602052604080822080547fffffffffffffffffffffffff00000000000000000000000000000000000000001673ffffffffffffffffffffffffffffffffffffffff87811691821790925591518593918516917f8c5be1e5ebec7d5bd14f71427d1e84f3dd0314c0f7b2291e5b200ac8c7c3b92591a4505050565b6001810361099657610991838383611885565b505050565b602a81036109a957610991838383611885565b610991838383611a7f565b600181036109cc576109c7838383611885565b6109ea565b602a81036109df576109c7838383611885565b6109ea838383611a7f565b73ffffffffffffffffffffffffffffffffffffffff82163b1580610ade57506040517f150b7a020000000000000000000000000000000000000000000000000000000080825233600483015273ffffffffffffffffffffffffffffffffffffffff858116602484015260448301849052608060648401526000608484015290919084169063150b7a029060a4016020604051808303816000875af1158015610a96573d6000803e3d6000fd5b505050506040513d601f19601f82011682018060405250810190610aba919061517e565b7fffffffff0000000000000000000000000000000000000000000000000000000016145b610991576040517f08c379a000000000000000000000000000000000000000000000000000000000815260206004820152601060248201527f554e534146455f524543495049454e540000000000000000000000000000000060448201526064016108f4565b60005473ffffffffffffffffffffffffffffffffffffffff163314610b6857600080fd5b600b60005260056020527f40f28f99a40bc9f6beea1013afdbc3cdcc689eb76b82c4de06c0acf1e1932ed554610bd49073ffffffffffffffffffffffffffffffffffffffff16610bcd60005473ffffffffffffffffffffffffffffffffffffffff1690565b600b611b72565b565b600760005260056020527feddb6698d7c569ff62ff64f1f1492bf14a54594835ba0faac91f84b4f5d814605473ffffffffffffffffffffffffffffffffffffffff16610c3657600d54341015610c2b57600080fd5b610bd4336007611cc1565b600d5434111561024f5734600d556007600081905260056020527feddb6698d7c569ff62ff64f1f1492bf14a54594835ba0faac91f84b4f5d8146054610bd49173ffffffffffffffffffffffffffffffffffffffff909116903390611885565b60005473ffffffffffffffffffffffffffffffffffffffff163314610cba57600080fd5b60008173ffffffffffffffffffffffffffffffffffffffff164760405160006040518083038185875af1925050503d8060008114610d14576040519150601f19603f3d011682016040523d82523d6000602084013e610d19565b606091505b5050905080610d2757600080fd5b5050565b60606000610d3883611e75565b9050610dcf838260108054610d4c9061512b565b80601f0160208091040260200160405190810160405280929190818152602001828054610d789061512b565b8015610dc55780601f10610d9a57610100808354040283529160200191610dc5565b820191906000526020600020905b815481529060010190602001808311610da857829003601f168201915b5050505050612366565b9392505050565b6000602a8203610de7575041919050565b601682148015610dff5750610dfd6002436151ca565b155b80610e1f5750601f82148015610e1f5750610e1b6002436151ca565b6001145b15610e86576040517f08c379a000000000000000000000000000000000000000000000000000000000815260206004820152601060248201527f48616c66206f66207468652074696d650000000000000000000000000000000060448201526064016108f4565b60038203610efc57610e96611092565b610efc576040517f08c379a000000000000000000000000000000000000000000000000000000000815260206004820152601060248201527f43757272656e746c7920636c6f7365640000000000000000000000000000000060448201526064016108f4565b61079b82612383565b60004173ffffffffffffffffffffffffffffffffffffffff831603610f555773ffffffffffffffffffffffffffffffffffffffff821660009081526006602052604090205461079b90600161520d565b61079b8261240f565b610f666124b7565b610bd46000612538565b600280546107ae9061512b565b600081118015610f8f57506008548111155b610f9857600080fd5b600060288214610fb05767016345785d8a0000610fca565b610fca67016345785d8a0000670de0b6b3a764000061520d565b9050803414610fd857600080fd5b610fe23383611cc1565b60078054906000610ff283615220565b91905055505050565b33600081815260046020908152604080832073ffffffffffffffffffffffffffffffffffffffff87168085529083529281902080547fffffffffffffffffffffffffffffffffffffffffffffffffffffffffffffff001686151590811790915590519081529192917f17307eab39ab6107e8899845ad3d59bd9653f200f220920489ca2b5937696c31910160405180910390a35050565b6000806110a262015180426151ca565b9050617e9081101580156110b8575061ef108111155b91505090565b600183036110d6576110d1858585611885565b6110f4565b602a83036110e9576110d1858585611885565b6110f4858585611a7f565b73ffffffffffffffffffffffffffffffffffffffff84163b15806111d657506040517f150b7a02000000000000000000000000000000000000000000000000000000008082529073ffffffffffffffffffffffffffffffffffffffff86169063150b7a029061116f9033908a90899089908990600401615258565b6020604051808303816000875af115801561118e573d6000803e3d6000fd5b505050506040513d601f19601f820116820180604052508101906111b2919061517e565b7fffffffff0000000000000000000000000000000000000000000000000000000016145b61123c576040517f08c379a000000000000000000000000000000000000000000000000000000000815260206004820152601060248201527f554e534146455f524543495049454e540000000000000000000000000000000060448201526064016108f4565b5050505050565b606060168214801561125d575061125b6002436151ca565b155b8061127d5750601f8214801561127d57506112796002436151ca565b6001145b156112e4576040517f08c379a000000000000000000000000000000000000000000000000000000000815260206004820152601060248201527f48616c66206f66207468652074696d650000000000000000000000000000000060448201526064016108f4565b6003820361135a576112f4611092565b61135a576040517f08c379a000000000000000000000000000000000000000000000000000000000815260206004820152601060248201527f43757272656e746c7920636c6f7365640000000000000000000000000000000060448201526064016108f4565b60008281526005602052604090205473ffffffffffffffffffffffffffffffffffffffff166113e5576040517f08c379a000000000000000000000000000000000000000000000000000000000815260206004820152600a60248201527f4e4f545f4d494e5445440000000000000000000000000000000000000000000060448201526064016108f4565b60006113f083611e75565b9050610dcf8382601080546114049061512b565b80601f01602080910402602001604051908101604052809291908181526020018280546114309061512b565b801561147d5780601f106114525761010080835404028352916020019161147d565b820191906000526020600020905b81548152906001019060200180831161146057829003601f168201915b50505050506125ad565b6060600061149483611e75565b9050610dcf8382601080546114a89061512b565b80601f01602080910402602001604051908101604052809291908181526020018280546114d49061512b565b80156115215780601f106114f657610100808354040283529160200191611521565b820191906000526020600020905b81548152906001019060200180831161150457829003601f168201915b5050505050612667565b60005473ffffffffffffffffffffffffffffffffffffffff16331461154f57600080fd5b60005b8151811015610d2757600082828151811061156f5761156f6152d7565b602090810291909101810151805160008181526009845260409081902083518155838501516001820155908301516002820155606083015180519395509193859391926115c59260038501929190910190614b93565b50608082015180516115e1916004840191602090910190614b93565b5060a082015180516115fd916005840191602090910190614b93565b5050825190505b60208301518351611615919061520d565b81101561163f576000818152600a602052604090208290558061163781615220565b915050611604565b505050808061164d90615220565b915050611552565b600e80546c0100000000000000000000000090046bffffffffffffffffffffffff1690600c61168383615306565b91906101000a8154816bffffffffffffffffffffffff02191690836bffffffffffffffffffffffff16021790555050565b6040517fffffffffffffffffffffffffffffffffffffffff000000000000000000000000606083901b166020820152600090819081908190603401604080517fffffffffffffffffffffffffffffffffffffffffffffffffffffffffffffffe081840301815291905280516020909101209050611734620186a0826151ca565b9350611747620186a0600883901c6151ca565b9250611759612710601083901c6151ca565b93959294505050565b600e80546bffffffffffffffffffffffff1690600061168383615306565b6117886124b7565b73ffffffffffffffffffffffffffffffffffffffff811661182b576040517f08c379a000000000000000000000000000000000000000000000000000000000815260206004820152602660248201527f4f776e61626c653a206e6577206f776e657220697320746865207a65726f206160448201527f646472657373000000000000000000000000000000000000000000000000000060648201526084016108f4565b61183481612538565b50565b602a600081905260056020527fd3e7a847b0e4be9f2ff1f88564b0a771bb9789c2c82f98679296a6042483791d54610bd49173ffffffffffffffffffffffffffffffffffffffff9091169041905b73ffffffffffffffffffffffffffffffffffffffff8216611902576040517f08c379a000000000000000000000000000000000000000000000000000000000815260206004820152601160248201527f494e56414c49445f524543495049454e5400000000000000000000000000000060448201526064016108f4565b60008181526005602052604090205473ffffffffffffffffffffffffffffffffffffffff848116911614611992576040517f08c379a000000000000000000000000000000000000000000000000000000000815260206004820152600a60248201527f57524f4e475f46524f4d0000000000000000000000000000000000000000000060448201526064016108f4565b600061199f848484612674565b9050806119ac5750505050565b73ffffffffffffffffffffffffffffffffffffffff808516600081815260066020908152604080832080547fffffffffffffffffffffffffffffffffffffffffffffffffffffffffffffffff019055938716808352848320805460010190558683526005825284832080547fffffffffffffffffffffffff00000000000000000000000000000000000000009081168317909155600390925284832080549092169091559251859392917fddf252ad1be2c89b69c2b068fc378daa952ba7f163c4a11628f55a4df523b3ef91a450505050565b3373ffffffffffffffffffffffffffffffffffffffff84161480611ad3575073ffffffffffffffffffffffffffffffffffffffff8316600090815260046020908152604080832033845290915290205460ff165b80611b01575060008181526003602052604090205473ffffffffffffffffffffffffffffffffffffffff1633145b611b67576040517f08c379a000000000000000000000000000000000000000000000000000000000815260206004820152600e60248201527f4e4f545f415554484f52495a454400000000000000000000000000000000000060448201526064016108f4565b610991838383611885565b73ffffffffffffffffffffffffffffffffffffffff8216611bef576040517f08c379a000000000000000000000000000000000000000000000000000000000815260206004820152601160248201527f494e56414c49445f524543495049454e5400000000000000000000000000000060448201526064016108f4565b73ffffffffffffffffffffffffffffffffffffffff808416600081815260066020908152604080832080547fffffffffffffffffffffffffffffffffffffffffffffffffffffffffffffffff019055938616808352848320805460010190558583526005825284832080547fffffffffffffffffffffffff00000000000000000000000000000000000000009081168317909155600390925284832080549092169091559251849392917fddf252ad1be2c89b69c2b068fc378daa952ba7f163c4a11628f55a4df523b3ef91a4505050565b73ffffffffffffffffffffffffffffffffffffffff8216611d3e576040517f08c379a000000000000000000000000000000000000000000000000000000000815260206004820152601160248201527f494e56414c49445f524543495049454e5400000000000000000000000000000060448201526064016108f4565b60008181526005602052604090205473ffffffffffffffffffffffffffffffffffffffff1615611dca576040517f08c379a000000000000000000000000000000000000000000000000000000000815260206004820152600e60248201527f414c52454144595f4d494e54454400000000000000000000000000000000000060448201526064016108f4565b6000611dd860008484612674565b905080611de457505050565b73ffffffffffffffffffffffffffffffffffffffff8316600081815260066020908152604080832080546001019055858352600590915280822080547fffffffffffffffffffffffff0000000000000000000000000000000000000000168417905551849291907fddf252ad1be2c89b69c2b068fc378daa952ba7f163c4a11628f55a4df523b3ef908290a4505050565b611eb16040518060c001604052806000815260200160008152602001600080191681526020016060815260200160608152602001606081525090565b6000828152600a602090815260408083205480845260098352818420825160c0810184528154815260018201548186015260028201548185015260038201805485518188028101880190965280865293969591949293606086019392830182828015611f3c57602002820191906000526020600020905b815481526020019060010190808311611f28575b5050505050815260200160048201805480602002602001604051908101604052809291908181526020018280548015611f9457602002820191906000526020600020905b815481526020019060010190808311611f80575b5050505050815260200160058201805480602002602001604051908101604052809291908181526020018280548015611fec57602002820191906000526020600020905b815481526020019060010190808311611fd8575b50505050508152505090506007840361210c576040805160018082528183019092526000916020808301908036833701905050905061203f670de0b6b3a7640000600d5461203a9190615331565b613744565b612064600a67016345785d8a0000600d5461205a9190615331565b61203a91906151ca565b600a662386f26fc10000600d5461207b9190615331565b61208591906151ca565b156120a9576120a4600a662386f26fc10000600d5461205a9190615331565b6120ba565b604051806020016040528060008152505b6040516020016120cc93929190615361565b6040516020818303038152906040526120e490615423565b816000815181106120f7576120f76152d7565b602090810291909101015260a0820152610dcf565b601184036121515760408051600180825281830190925260009160208083019080368337019050509050612141600f54613744565b6040516020016120cc9190615465565b601b84036121a557600e54612173906bffffffffffffffffffffffff16613744565b60405160200161218391906154aa565b60405160208183030381529060405261219b90615423565b6040820152610dcf565b601384036121d757600e54612173906c0100000000000000000000000090046bffffffffffffffffffffffff16613744565b6003840361228f5760408051600180825281830190925260009160208083019080368337019050509050612209611092565b612248576040518060400160405280600681526020017f436c6f736564000000000000000000000000000000000000000000000000000081525061227f565b6040518060400160405280600481526020017f4f70656e000000000000000000000000000000000000000000000000000000008152505b6040516020016120cc91906154c6565b60158403610dcf57604080516003808252608082019092526000916020820160608036833750505060008681526005602052604081205491925090819081906122ed9073ffffffffffffffffffffffffffffffffffffffff166116b4565b919450925090506122fd83613744565b61230683613744565b61230f83613744565b6040516020016123219392919061550b565b60405160208183030381529060405261233990615423565b8460008151811061234c5761234c6152d7565b602090810291909101015250505060a08201529392505050565b606061237b612376858585613806565b6138d6565b949350505050565b60008181526005602052604081205473ffffffffffffffffffffffffffffffffffffffff168061079b576040517f08c379a000000000000000000000000000000000000000000000000000000000815260206004820152600a60248201527f4e4f545f4d494e5445440000000000000000000000000000000000000000000060448201526064016108f4565b600073ffffffffffffffffffffffffffffffffffffffff821661248e576040517f08c379a000000000000000000000000000000000000000000000000000000000815260206004820152600c60248201527f5a45524f5f41444452455353000000000000000000000000000000000000000060448201526064016108f4565b5073ffffffffffffffffffffffffffffffffffffffff1660009081526006602052604090205490565b60005473ffffffffffffffffffffffffffffffffffffffff163314610bd4576040517f08c379a000000000000000000000000000000000000000000000000000000000815260206004820181905260248201527f4f776e61626c653a2063616c6c6572206973206e6f7420746865206f776e657260448201526064016108f4565b6000805473ffffffffffffffffffffffffffffffffffffffff8381167fffffffffffffffffffffffff0000000000000000000000000000000000000000831681178455604051919092169283917f8be0079c531659141344cd1fd0a4f28419497f9722a3daafe3b4186f6b6457e09190a35050565b60608060005b84606001515181101561261c57816125e7866060015183815181106125da576125da6152d7565b602002602001015161393e565b6040516020016125f8929190615581565b6040516020818303038152906040529150808061261490615220565b9150506125b3565b5061265e8561262e8660400151613a8c565b8360405160200161263f91906154aa565b604051602081830303815290604052612659898989613806565b613a97565b95945050505050565b606061237b848484613806565b6000600982036126b4576000805b62026db88110156126ad578161269781615220565b92505080806126a590615220565b915050612682565b505061373a565b6016821480156126cc57506126ca6002436151ca565b155b806126ec5750601f821480156126ec57506126e86002436151ca565b6001145b15612753576040517f08c379a000000000000000000000000000000000000000000000000000000000815260206004820152601060248201527f48616c66206f66207468652074696d650000000000000000000000000000000060448201526064016108f4565b602a82036127825773ffffffffffffffffffffffffffffffffffffffff8316411461277d57600080fd5b61373a565b600382036127f857612792611092565b61277d576040517f08c379a000000000000000000000000000000000000000000000000000000000815260206004820152601060248201527f43757272656e746c7920636c6f7365640000000000000000000000000000000060448201526064016108f4565b60048214806128075750601782145b806128125750602582145b8061281d5750602082145b806128285750600c82145b806128335750602482145b8061283e5750602382145b806128495750600882145b806128545750602982145b8061285f5750601282145b8061286a5750601c82145b15612c9c57606083901b6004831480156128c557507fdead00000000000000000000000000000000beef0000000000000000000000007fffff00000000000000000000000000000000ffff0000000000000000000000008216145b8061291c575060178314801561291c57507fbeef00000000000000000000000000000000beef0000000000000000000000007fffff00000000000000000000000000000000ffff0000000000000000000000008216145b80612973575060258314801561297357507ffeed00000000000000000000000000000000beef0000000000000000000000007fffff00000000000000000000000000000000ffff0000000000000000000000008216145b806129ca57506020831480156129ca57507fdeaf00000000000000000000000000000000beef0000000000000000000000007fffff00000000000000000000000000000000ffff0000000000000000000000008216145b80612a215750600c83148015612a2157507fbad000000000000000000000000000000000beef0000000000000000000000007ffff000000000000000000000000000000000ffff0000000000000000000000008216145b80612a785750602483148015612a7857507fbeef00000000000000000000000000000000face0000000000000000000000007fffff00000000000000000000000000000000ffff0000000000000000000000008216145b80612acf5750602383148015612acf57507fbabe00000000000000000000000000000000beef0000000000000000000000007fffff00000000000000000000000000000000ffff0000000000000000000000008216145b80612b265750600883148015612b2657507fbeef00000000000000000000000000000000babe0000000000000000000000007fffff00000000000000000000000000000000ffff0000000000000000000000008216145b80612b7d5750602983148015612b7d57507fbad000000000000000000000000000000000babe0000000000000000000000007ffff000000000000000000000000000000000ffff0000000000000000000000008216145b80612bd45750601283148015612bd457507fdeaf00000000000000000000000000000000babe0000000000000000000000007fffff00000000000000000000000000000000ffff0000000000000000000000008216145b80612c2b5750601c83148015612c2b57507fdead00000000000000000000000000000000babe0000000000000000000000007fffff00000000000000000000000000000000ffff0000000000000000000000008216145b1515600003612c96576040517f08c379a000000000000000000000000000000000000000000000000000000000815260206004820152600760248201527f4e6f20626565660000000000000000000000000000000000000000000000000060448201526064016108f4565b5061373a565b600e8210158015612cae575060108211155b15612ec4576000600e8314612cc457600e612cc7565b600f5b90506000600e8414612ce957600f8414612ce257600f612cec565b6010612cec565b60105b6000838152600b602052604090205490915043148015612d1957506000818152600b602052604090205443145b15612e635760008281526005602052604090205473ffffffffffffffffffffffffffffffffffffffff1615612d8c57600082815260056020908152604080832054600c90925290912054612d879173ffffffffffffffffffffffffffffffffffffffff908116911684611b72565b612dbb565b6000828152600c6020526040902054612dbb9073ffffffffffffffffffffffffffffffffffffffff1683613bd9565b60008181526005602052604090205473ffffffffffffffffffffffffffffffffffffffff1615612e2957600081815260056020908152604080832054600c90925290912054612e249173ffffffffffffffffffffffffffffffffffffffff908116911683611b72565b612e58565b6000818152600c6020526040902054612e589073ffffffffffffffffffffffffffffffffffffffff1682613bd9565b600192505050610dcf565b5050506000818152600b60209081526040808320439055600c909152812080547fffffffffffffffffffffffff00000000000000000000000000000000000000001673ffffffffffffffffffffffffffffffffffffffff8516179055610dcf565b6018821480612ed35750601982145b1561301a57600060188314612ee9576018612eec565b60195b9050611000612efb81866155b0565b600083815260056020526040902054612f2d906110009073ffffffffffffffffffffffffffffffffffffffff166155b0565b612f3791906155e3565b73ffffffffffffffffffffffffffffffffffffffff16108015612faf5750611000612f6a81610fff609488901c166155b0565b600083815260056020526040902054612f8d906110009060941c610fff166155b0565b612f9791906155e3565b73ffffffffffffffffffffffffffffffffffffffff16105b1515600003612c96576040517f08c379a000000000000000000000000000000000000000000000000000000000815260206004820152600b60248201527f436f646570656e64656e7400000000000000000000000000000000000000000060448201526064016108f4565b60058214806130295750600682145b156131b65760006005831461303f576005613042565b60065b6000818152600560205260408120549192507fffffffffffffffffffffffffffffffffffffffff000000000000000000000000606092831b169186901b905b60288110156131ad576010613097826004615617565b6130c991907fffffffffffffffffffffffffffffffffffffffff0000000000000000000000008516901c60601c6155b0565b73ffffffffffffffffffffffffffffffffffffffff1660106130ec836004615617565b61311e91907fffffffffffffffffffffffffffffffffffffffff0000000000000000000000008716901c60601c6155b0565b73ffffffffffffffffffffffffffffffffffffffff160361319b576040517f08c379a000000000000000000000000000000000000000000000000000000000815260206004820152601260248201527f4d757475616c6c79206578636c7573697665000000000000000000000000000060448201526064016108f4565b806131a581615220565b915050613081565b5050505061373a565b601a82036132bf57606083901b6000805b602881101561024f5760106131dd826004615617565b61320f91907fffffffffffffffffffffffffffffffffffffffff0000000000000000000000008616901c60601c6155b0565b73ffffffffffffffffffffffffffffffffffffffff161561024f576010613237826004615617565b61326991907fffffffffffffffffffffffffffffffffffffffff0000000000000000000000008616901c60601c6155b0565b73ffffffffffffffffffffffffffffffffffffffff16600f0361329457816132908161562e565b9250505b600d8261ffff1611156132ad5760019350505050610dcf565b806132b781615220565b9150506131c7565b600a82036133cb57606083901b6000805b602881101561024f5760106132e6826004615617565b61331891907fffffffffffffffffffffffffffffffffffffffff0000000000000000000000008616901c60601c6155b0565b73ffffffffffffffffffffffffffffffffffffffff16600f031561024f576010613343826004615617565b61337591907fffffffffffffffffffffffffffffffffffffffff0000000000000000000000008616901c60601c6155b0565b73ffffffffffffffffffffffffffffffffffffffff166000036133a0578161339c8161562e565b9250505b600d8261ffff1611156133b95760019350505050610dcf565b806133c381615220565b9150506132d0565b6027820361346957606083901b6000805b602881101561024f5760106133f2826004615617565b61342491907fffffffffffffffffffffffffffffffffffffffff0000000000000000000000008616901c60601c6155b0565b73ffffffffffffffffffffffffffffffffffffffff166001901b821791508161ffff036134575760019350505050610dcf565b8061346181615220565b9150506133dc565b6002820361347d57823b80612c9657600080fd5b600d820361349e57823b801561349257600080fd5b323314612c9657600080fd5b6011820361352457600f54156134c857600f80549060006134be83615645565b919050555061373a565b6011600081905260056020527fb4e18992ad424cdedc46668609f2bafcf665a8d99577618d5923c69264d9cf5f5461351c9173ffffffffffffffffffffffffffffffffffffffff9091169061dead90611b72565b506000610dcf565b602882036135c357670de0b6b3a7640000341015801561355d575061355967016345785d8a0000670de0b6b3a764000061520d565b3411155b61356657600080fd5b6040516000908190670de0b6b3a7640000908281818185825af1925050503d80600081146135b0576040519150601f19603f3d011682016040523d82523d6000602084013e6135b5565b606091505b5050905080612c9657600080fd5b602282036135ed5773ffffffffffffffffffffffffffffffffffffffff8316411461277d57600080fd5b601d820361373a57601d600090815260056020527f348e8fe0716b12afdd2e814ae0b8b1bb9b5c7a197ef418c73b8bdd93bee14de5547fffffffffffffffffffffffffffffffffffffffff000000000000000000000000606091821b16919085901b905b600381101561373657601061366782600361567a565b61367290602861567a565b61367d906004615617565b6136af91907fffffffffffffffffffffffffffffffffffffffff0000000000000000000000008516901c60601c6155b0565b73ffffffffffffffffffffffffffffffffffffffff1660106136d2836004615617565b61370491907fffffffffffffffffffffffffffffffffffffffff0000000000000000000000008716901c60601c6155b0565b73ffffffffffffffffffffffffffffffffffffffff161461372457600080fd5b8061372e81615220565b915050613651565b5050505b5060019392505050565b60608160000361378757505060408051808201909152600181527f3000000000000000000000000000000000000000000000000000000000000000602082015290565b606e6040510190508060405260005b82156137da577fffffffffffffffffffffffffffffffffffffffffffffffffffffffffffffffff90910190600101600a830660300180835350600a83049250613796565b7fffffffffffffffffffffffffffffffffffffffffffffffffffffffffffffffe0909101908152919050565b6060600084600414806138195750846008145b80613824575084600c145b8061382f5750846017145b8061383a5750846020145b806138455750846023145b806138505750846024145b8061385b5750846025145b905061265e6040518060400160405280600381526020017f737667000000000000000000000000000000000000000000000000000000000081525061389e613d72565b856040516020016138af919061568d565b6040516020818303038152906040526138c785613e9f565b6138d18a8a613fda565b61413e565b60606040518060400160405280601a81526020017f646174613a696d6167652f7376672b786d6c3b6261736536342c0000000000008152506139178361416e565b604051602001613928929190615581565b6040516020818303038152906040529050919050565b6040805160208082528183019092526060916000919060208201818036833701905050905060005b6020811015613a6357838160208110613981576139816152d7565b1a60f81b7fff00000000000000000000000000000000000000000000000000000000000000166000036139f957602060f81b8282815181106139c5576139c56152d7565b60200101907effffffffffffffffffffffffffffffffffffffffffffffffffffffffffffff1916908160001a905350613a51565b838160208110613a0b57613a0b6152d7565b1a60f81b828281518110613a2157613a216152d7565b60200101907effffffffffffffffffffffffffffffffffffffffffffffffffffffffffffff1916908160001a9053505b80613a5b81615220565b915050613966565b5080604051602001613a7591906154aa565b604051602081830303815290604052915050919050565b606061079b8261393e565b60606000613ae26040518060400160405280600781526020017f746f6b656e496400000000000000000000000000000000000000000000000000815250613add88613744565b614348565b613b216040518060400160405280600481526020017f6e616d650000000000000000000000000000000000000000000000000000000081525087614348565b613b606040518060400160405280600b81526020017f6465736372697074696f6e00000000000000000000000000000000000000000081525087614348565b613ba26040518060400160405280600581526020017f696d616765000000000000000000000000000000000000000000000000000000815250613add886138d6565b604051602001613bb59493929190615791565b6040516020818303038152906040529050613bcf81614374565b9695505050505050565b73ffffffffffffffffffffffffffffffffffffffff8216613c56576040517f08c379a000000000000000000000000000000000000000000000000000000000815260206004820152601160248201527f494e56414c49445f524543495049454e5400000000000000000000000000000060448201526064016108f4565b60008181526005602052604090205473ffffffffffffffffffffffffffffffffffffffff1615613ce2576040517f08c379a000000000000000000000000000000000000000000000000000000000815260206004820152600e60248201527f414c52454144595f4d494e54454400000000000000000000000000000000000060448201526064016108f4565b73ffffffffffffffffffffffffffffffffffffffff8216600081815260066020908152604080832080546001019055848352600590915280822080547fffffffffffffffffffffffff0000000000000000000000000000000000000000168417905551839291907fddf252ad1be2c89b69c2b068fc378daa952ba7f163c4a11628f55a4df523b3ef908290a45050565b6060604051602001613e8b907f786d6c6e733d22687474703a2f2f7777772e77332e6f72672f323030302f737681527f672220786d6c6e733a786c696e6b3d22687474703a2f2f7777772e77332e6f7260208201527f672f313939392f786c696e6b222077696474683d22313030252220686569676860408201527f743d2231303025222076696577426f783d22302030203531312036313922200060608201527f7072657365727665417370656374526174696f3d22784d6964594d6964206d65607f8201527f6574222000000000000000000000000000000000000000000000000000000000609f8201527f66696c6c3d226e6f6e652220000000000000000000000000000000000000000060a382015260af0190565b604051602081830303815290604052905090565b606061079b6040518060400160405280600481526020017f7265637400000000000000000000000000000000000000000000000000000000815250613fd56040518060400160405280600481526020017f31303025000000000000000000000000000000000000000000000000000000008152506040518060400160405280600481526020017f313030250000000000000000000000000000000000000000000000000000000081525086613f89576040518060400160405280600481526020017f2330303000000000000000000000000000000000000000000000000000000000815250613fc0565b6040518060400160405280600781526020017f23424132323139000000000000000000000000000000000000000000000000008152505b604051806020016040528060008152506143b5565b6143ff565b606060008083606001515111613ff1576000613ff4565b60325b60ff16836060015151601e6140099190615617565b6140149060d761520d565b61401e919061520d565b905060008084608001515111614035576000614038565b60325b60ff16846080015151601461404d9190615617565b614057908461520d565b614061919061520d565b905061265e6040518060400160405280600181526020017f6700000000000000000000000000000000000000000000000000000000000000815250604051806020016040528060008152506140bd8760400151609b6000614414565b6140ce886060015160d760006145a9565b6140de8960a001518760006145a9565b6140ee8a608001518960016145a9565b6141276140fa8d613744565b60405160200161410a91906154aa565b60405160208183030381529060405261412290615423565b614719565b6141396141348e8e614896565b6148f3565b614a8d565b6060613bcf868686868660405160200161415a93929190615878565b604051602081830303815290604052614abc565b6060815160000361418d57505060408051602081019091526000815290565b6000604051806060016040528060408152602001615f5060409139905060006003845160026141bc919061520d565b6141c69190615331565b6141d1906004615617565b905060006141e082602061520d565b67ffffffffffffffff8111156141f8576141f8614e55565b6040519080825280601f01601f191660200182016040528015614222576020820181803683370190505b509050818152600183018586518101602084015b818310156142905760039283018051603f601282901c811687015160f890811b8552600c83901c8216880151811b6001860152600683901c8216880151811b60028601529116860151901b93820193909352600401614236565b6003895106600181146142aa57600281146142f45761433a565b7f3d3d0000000000000000000000000000000000000000000000000000000000007ffffffffffffffffffffffffffffffffffffffffffffffffffffffffffffffffe83015261433a565b7f3d000000000000000000000000000000000000000000000000000000000000007fffffffffffffffffffffffffffffffffffffffffffffffffffffffffffffffff8301525b509398975050505050505050565b6060828260405160200161435d9291906158bb565b604051602081830303815290604052905092915050565b60606040518060400160405280601d81526020017f646174613a6170706c69636174696f6e2f6a736f6e3b6261736536342c00000081525061391783614aed565b60606143c085614af8565b6143c985614af8565b6143d285614af8565b846040516020016143e69493929190615945565b6040516020818303038152906040529050949350505050565b6060828260405160200161435d929190615a4d565b606061237b6040518060400160405280600481526020017f746578740000000000000000000000000000000000000000000000000000000081525061459b60405180604001604052806040518060400160405280600281526020017f363000000000000000000000000000000000000000000000000000000000000081525081526020016144a188613744565b9052856144e3576040518060400160405280600281526020017f323600000000000000000000000000000000000000000000000000000000000081525061451a565b6040518060400160405280600281526020017f31340000000000000000000000000000000000000000000000000000000000008152505b6040518060400160405280601e81526020017f4e6f72772c2027436f7572696572204e6577272c206d6f6e6f737061636500008152506040518060400160405280600581526020017f776869746500000000000000000000000000000000000000000000000000000081525060405180602001604052806000815250614b0b565b6145a487613a8c565b614abc565b60408051602081019091526000808252606091905b85518160ff16101561471057816146dd6040518060400160405280600481526020017f74657874000000000000000000000000000000000000000000000000000000008152506146b860405180604001604052806040518060400160405280600281526020017f363000000000000000000000000000000000000000000000000000000000000081525081526020016146768a61465c57601e61465f565b60145b6146699089615af8565b61203a9060ff168d61520d565b9052886144e3576040518060400160405280600281526020017f323600000000000000000000000000000000000000000000000000000000000081525061451a565b6145a48a8660ff16815181106146d0576146d06152d7565b6020026020010151613a8c565b6040516020016146ee929190615581565b60405160208183030381529060405291508061470990615b14565b90506145be565b50949350505050565b606061079b6040518060400160405280600481526020017f746578740000000000000000000000000000000000000000000000000000000081525061488d60405180604001604052806040518060400160405280600281526020017f313200000000000000000000000000000000000000000000000000000000000081525081526020016040518060400160405280600281526020017f33350000000000000000000000000000000000000000000000000000000000008152508152506040518060400160405280600281526020017f32360000000000000000000000000000000000000000000000000000000000008152506040518060400160405280601e81526020017f4e6f72772c2027436f7572696572204e6577272c206d6f6e6f737061636500008152506040518060400160405280600581526020017f776869746500000000000000000000000000000000000000000000000000000081525060405180602001604052806000815250614b0b565b6145a485613a8c565b805160009081906148a7908561567a565b6148b290600161520d565b90506148bd81613744565b6148ca8460200151613744565b6040516020016148db929190615b33565b60405160208183030381529060405261237b90615423565b606061079b6040518060400160405280600481526020017f746578740000000000000000000000000000000000000000000000000000000081525061488d60405180604001604052806040518060400160405280600381526020017f343939000000000000000000000000000000000000000000000000000000000081525081526020016040518060400160405280600381526020017f36303500000000000000000000000000000000000000000000000000000000008152508152506040518060400160405280600281526020017f32360000000000000000000000000000000000000000000000000000000000008152506040518060400160405280601e81526020017f4e6f72772c2027436f7572696572204e6577272c206d6f6e6f737061636500008152506040518060400160405280600581526020017f77686974650000000000000000000000000000000000000000000000000000008152506040518060400160405280601181526020017f746578742d616e63686f723d22656e6422000000000000000000000000000000815250614b0b565b6060614aaf898989898989898960405160200161415a96959493929190615b8b565b9998505050505050505050565b606083838386604051602001614ad59493929190615c0a565b60405160208183030381529060405290509392505050565b606061079b8261416e565b6060816040516020016139289190615d12565b6060614b1e8660005b6020020151614af8565b614b29876001614b14565b614b5187604051602001614b3d9190615d7e565b604051602081830303815290604052614af8565b614b5a87614af8565b614b6387614af8565b86604051602001614b7996959493929190615dbf565b604051602081830303815290604052905095945050505050565b828054828255906000526020600020908101928215614bce579160200282015b82811115614bce578251825591602001919060010190614bb3565b50614bda929150614bde565b5090565b5b80821115614bda5760008155600101614bdf565b7fffffffff000000000000000000000000000000000000000000000000000000008116811461183457600080fd5b600060208284031215614c3357600080fd5b8135610dcf81614bf3565b60005b83811015614c59578181015183820152602001614c41565b50506000910152565b6020815260008251806020840152614c81816040850160208701614c3e565b601f017fffffffffffffffffffffffffffffffffffffffffffffffffffffffffffffffe0169190910160400192915050565b600060208284031215614cc557600080fd5b5035919050565b73ffffffffffffffffffffffffffffffffffffffff8116811461183457600080fd5b60008060408385031215614d0157600080fd5b8235614d0c81614ccc565b946020939093013593505050565b600080600060608486031215614d2f57600080fd5b8335614d3a81614ccc565b92506020840135614d4a81614ccc565b929592945050506040919091013590565b600060208284031215614d6d57600080fd5b8135610dcf81614ccc565b60008060408385031215614d8b57600080fd5b8235614d9681614ccc565b915060208301358015158114614dab57600080fd5b809150509250929050565b600080600080600060808688031215614dce57600080fd5b8535614dd981614ccc565b94506020860135614de981614ccc565b935060408601359250606086013567ffffffffffffffff80821115614e0d57600080fd5b818801915088601f830112614e2157600080fd5b813581811115614e3057600080fd5b896020828501011115614e4257600080fd5b9699959850939650602001949392505050565b7f4e487b7100000000000000000000000000000000000000000000000000000000600052604160045260246000fd5b60405160c0810167ffffffffffffffff81118282101715614ea757614ea7614e55565b60405290565b604051601f82017fffffffffffffffffffffffffffffffffffffffffffffffffffffffffffffffe016810167ffffffffffffffff81118282101715614ef457614ef4614e55565b604052919050565b600067ffffffffffffffff821115614f1657614f16614e55565b5060051b60200190565b600082601f830112614f3157600080fd5b81356020614f46614f4183614efc565b614ead565b82815260059290921b84018101918181019086841115614f6557600080fd5b8286015b84811015614f805780358352918301918301614f69565b509695505050505050565b60006020808385031215614f9e57600080fd5b823567ffffffffffffffff80821115614fb657600080fd5b818501915085601f830112614fca57600080fd5b8135614fd8614f4182614efc565b81815260059190911b83018401908481019088831115614ff757600080fd5b8585015b838110156150f05780358581111561501257600080fd5b860160c0818c037fffffffffffffffffffffffffffffffffffffffffffffffffffffffffffffffe00112156150475760008081fd5b61504f614e84565b8882013581526040808301358a8301526060808401358284015260809150818401358981111561507f5760008081fd5b61508d8f8d83880101614f20565b82850152505060a080840135898111156150a75760008081fd5b6150b58f8d83880101614f20565b838501525060c08401359150888211156150cf5760008081fd5b6150dd8e8c84870101614f20565b9083015250845250918601918601614ffb565b5098975050505050505050565b6000806040838503121561511057600080fd5b823561511b81614ccc565b91506020830135614dab81614ccc565b600181811c9082168061513f57607f821691505b602082108103615178577f4e487b7100000000000000000000000000000000000000000000000000000000600052602260045260246000fd5b50919050565b60006020828403121561519057600080fd5b8151610dcf81614bf3565b7f4e487b7100000000000000000000000000000000000000000000000000000000600052601260045260246000fd5b6000826151d9576151d961519b565b500690565b7f4e487b7100000000000000000000000000000000000000000000000000000000600052601160045260246000fd5b8082018082111561079b5761079b6151de565b60007fffffffffffffffffffffffffffffffffffffffffffffffffffffffffffffffff8203615251576152516151de565b5060010190565b600073ffffffffffffffffffffffffffffffffffffffff808816835280871660208401525084604083015260806060830152826080830152828460a0840137600060a0848401015260a07fffffffffffffffffffffffffffffffffffffffffffffffffffffffffffffffe0601f85011683010190509695505050505050565b7f4e487b7100000000000000000000000000000000000000000000000000000000600052603260045260246000fd5b60006bffffffffffffffffffffffff808316818103615327576153276151de565b6001019392505050565b6000826153405761534061519b565b500490565b60008151615357818560208601614c3e565b9290920192915050565b7f50726963653a2000000000000000000000000000000000000000000000000000815260008451615399816007850160208901614c3e565b7f2e0000000000000000000000000000000000000000000000000000000000000060079184019182015284516153d6816008840160208901614c3e565b84519101906153ec816008840160208801614c3e565b7f204554480000000000000000000000000000000000000000000000000000000060089290910191820152600c0195945050505050565b80516020808301519190811015615178577fffffffffffffffffffffffffffffffffffffffffffffffffffffffffffffffff60209190910360031b1b16919050565b7f5472616e7366657273204c6566743a200000000000000000000000000000000081526000825161549d816010850160208701614c3e565b9190910160100192915050565b600082516154bc818460208701614c3e565b9190910192915050565b7f43757272656e746c7920000000000000000000000000000000000000000000008152600082516154fe81600a850160208701614c3e565b91909101600a0192915050565b6000845161551d818460208901614c3e565b80830190507f2c200000000000000000000000000000000000000000000000000000000000008082528551615559816002850160208a01614c3e565b60029201918201528351615574816004840160208801614c3e565b0160040195945050505050565b60008351615593818460208801614c3e565b8351908301906155a7818360208801614c3e565b01949350505050565b600073ffffffffffffffffffffffffffffffffffffffff808416806155d7576155d761519b565b92169190910692915050565b73ffffffffffffffffffffffffffffffffffffffff818116838216019080821115615610576156106151de565b5092915050565b808202811582820484141761079b5761079b6151de565b600061ffff808316818103615327576153276151de565b600081615654576156546151de565b507fffffffffffffffffffffffffffffffffffffffffffffffffffffffffffffffff0190565b8181038181111561079b5761079b6151de565b7f3c646566733e3c7374796c653e0000000000000000000000000000000000000081527f40666f6e742d66616365207b666f6e742d66616d696c793a20224e6f7277223b600d8201527f7372633a2075726c282200000000000000000000000000000000000000000000602d82015260008251615711816037850160208701614c3e565b7f22293b7d0000000000000000000000000000000000000000000000000000000060379390910192830152507f74657874207b746578742d7472616e73666f726d3a207570706572636173653b603b8201527f7d3c2f7374796c653e3c2f646566733e00000000000000000000000000000000605b820152606b01919050565b7f7b000000000000000000000000000000000000000000000000000000000000008152600085516157c9816001850160208a01614c3e565b80830190507f2c000000000000000000000000000000000000000000000000000000000000008060018301528651615808816002850160208b01614c3e565b600292019182018190528551615825816003850160208a01614c3e565b60039201918201528351615840816004840160208801614c3e565b7f7d00000000000000000000000000000000000000000000000000000000000000600492909101918201526005019695505050505050565b6000845161588a818460208901614c3e565b84519083019061589e818360208901614c3e565b84519101906158b1818360208801614c3e565b0195945050505050565b60007f220000000000000000000000000000000000000000000000000000000000000080835284516158f4816001860160208901614c3e565b7f223a2200000000000000000000000000000000000000000000000000000000006001918501918201528451615931816004840160208901614c3e565b016004810191909152600501949350505050565b7f77696474683d000000000000000000000000000000000000000000000000000081526000855161597d816006850160208a01614c3e565b7f6865696768743d0000000000000000000000000000000000000000000000000060069184019182015285516159ba81600d840160208a01614c3e565b7f66696c6c3d000000000000000000000000000000000000000000000000000000600d929091019182015284516159f8816012840160208901614c3e565b8082019150507f20000000000000000000000000000000000000000000000000000000000000008060128301528451615a38816013850160208901614c3e565b60139201918201526014019695505050505050565b7f3c00000000000000000000000000000000000000000000000000000000000000815260008351615a85816001850160208801614c3e565b7f20000000000000000000000000000000000000000000000000000000000000006001918401918201528351615ac2816002840160208801614c3e565b7f2f3e00000000000000000000000000000000000000000000000000000000000060029290910191820152600401949350505050565b60ff8181168382160290811690818114615610576156106151de565b600060ff821660ff8103615b2a57615b2a6151de565b60010192915050565b60008351615b45818460208801614c3e565b7f206f6620000000000000000000000000000000000000000000000000000000009083019081528351615b7f816004840160208801614c3e565b01600401949350505050565b600087516020615b9e8285838d01614c3e565b885191840191615bb18184848d01614c3e565b8851920191615bc38184848c01614c3e565b8751920191615bd58184848b01614c3e565b8651920191615be78184848a01614c3e565b8551920191615bf98184848901614c3e565b919091019998505050505050505050565b7f3c00000000000000000000000000000000000000000000000000000000000000815260008551615c42816001850160208a01614c3e565b7f20000000000000000000000000000000000000000000000000000000000000006001918401918201528551615c7f816002840160208a01614c3e565b8082019150507f3e000000000000000000000000000000000000000000000000000000000000008060028301528551615cbf816003850160208a01614c3e565b7f3c2f000000000000000000000000000000000000000000000000000000000000600393909101928301528451615cfd816005850160208901614c3e565b60059201918201526006019695505050505050565b7f2200000000000000000000000000000000000000000000000000000000000000815260008251615d4a816001850160208701614c3e565b7f22200000000000000000000000000000000000000000000000000000000000006001939091019283015250600301919050565b60008251615d90818460208701614c3e565b7f7078000000000000000000000000000000000000000000000000000000000000920191825250600201919050565b7f783d000000000000000000000000000000000000000000000000000000000000815260008751615df7816002850160208c01614c3e565b7f793d0000000000000000000000000000000000000000000000000000000000006002918401918201528751615e34816004840160208c01614c3e565b7f666f6e742d73697a653d00000000000000000000000000000000000000000000600492909101918201528651615e7281600e840160208b01614c3e565b7f666f6e742d66616d696c793d0000000000000000000000000000000000000000600e92909101918201528551615eb081601a840160208a01614c3e565b01615edd601a82017f66696c6c3d0000000000000000000000000000000000000000000000000000009052565b615eea601f820186615345565b7f200000000000000000000000000000000000000000000000000000000000000081529050615f1c6001820185615345565b7f20000000000000000000000000000000000000000000000000000000000000008152600101999850505050505050505056fe4142434445464748494a4b4c4d4e4f505152535455565758595a6162636465666768696a6b6c6d6e6f707172737475767778797a303132333435363738392b2fa2646970667358221220ceaefdb1345509acd5d8a0f73515ad550bf3d3add388639c6430a17f21b6e66864736f6c63430008120033ddf252ad1be2c89b69c2b068fc378daa952ba7f163c4a11628f55a4df523b3ef646174613a6170706c69636174696f6e2f666f6e742d776f6666323b636861727365743d7574662d383b6261736536342c643039474d674142414141414142525541424941414141414c4d674141425077414145414141414141414141414141414141414141414141414141414141414150305a475645306347683462687a77634d415a6741494d794344514a68475552434171314b4b354f4334454b4141453241695144676841454941574751416543557779435a52756f4a775863474b6468347741442f2b3744456457685a63762b72784f344d5154376831724349304c56535a556f67376f4e61324b7433706d7873565a664738585863633569484d4257664a574c5952547734524e6e375665766d455845587174744649736f73445871654b71634471394b66662b54656f516b737a785579322b7665326233396c49415458624259564f324b4652555942545a49766c43556e677335512f4b70326a6b39732f6a5a72346667304a496f4543686e6b43515650556d505a574d4f753070505455344a6c435a6c4a37623572304a6c566c506c546b6e4b703359764e4e2b7953567430715a4a4d39716b59392f6737713938557461665943774b427871685551616e742f7361692f4138416d44416e66456257595034306e653256625a32587a6d6d69387a57674d2f784b6149796931726c596a6d31576454676f6161715559674f7a784e4a494a4545456b6b676b5154692b77516d4d764244504f335833694c572f6949694a3561516c756c353574325654696945736b696b38583836792f5a2f6a525750484e78636b42776f366655485649614c4a6b306a7a3869535a6b5979534e34587759485050744c6573592f4975774566554a6c7755365a634277384975725263706b3537645a6f69565a6579443154643671392b66346e514f715a54424972586d42337735767264774e7049315031772b673871506b383953786d42354941447233375266336b4534504e4c6254487736516d364576446a6639667241414c5767494e415170426545414a494949415647563647586270792b51444d3437753243735167414655515744546a30554e54382b53644f4951315869434857706c513751542b7633423655364e6d4b327979787a642f676b4930536b444f6d4262755742536463545975783832344850666a4c3351353756676135736870325a6a4c387273386c72636268744e34466a34595967516d3869724b755674574d684c5a793856615355544a637a636b4c3445594f6868464353744f43444f4b4b7044416a6b426b72654357544e525267795747556b53594f383544766877533146776e55776d4149685954554d3861573141494e736155733141684d76306b73416b4844736a43746c6a6a4b4b6162596d6178526245335a596371746e6e7459356c594c5a6c55477054513971706a496a505a304d4a4c44775552725368584e6c756534334d59777261577267485a4d523369684f3446634866456479594d537741484d53757734796a556c54744d4436755161423941444f6c63693477774c4e4831746742697232625743747663377a68336e3839586f4253766b6c44417844476d4933416a4f39595245632f5876716948517055397655584e6e4f5775325135583532416f4d676a434133652f64484d6761567774632b6438462b727351436435466c64474432753351446a6a615949716a3130766972724647666477786648677148493256334e7575714766634b3347484b6f326742315764377a48745973397144696b766f50485673787264514579514d3364624a63533844416466715347614a6e51424b6e694c747333706b6a4c473375426f6b4f3374696d57774246444e6845434c44592f6e6839397a4472414d4d4c4c314f474d62742f38333442586363662f6f65706d467061672b2f79484f334b7838694559304e3474584448765667704e55734953675a524462433476575a6f694c366c535a376f74766a696b344852634f6a665338732f2f785231496c5a45766551433472582b2b2b6c4e6e366e5364716e4439556f64726479327568702f4479796d58497939642b3234443547566d6a4e444769427866517653306d7579657163692b71364a71446534733374335452786c2b33507072764d6b73574b7732753569556e414b444f302f3662353779556a6a7433547837446d3543624d41442f78434743435244636853426c496846617152424274676c37442f43476a6648674262464f692f41615a6649424941416b72725133612f6f3348414975433464564b6e57754d6b4e33336630436a43704c44304545767147727a51454a6c324432734c4f6873426c4c5a337761723961764f704345434c5878374c643054397a3534796c71662f6d51576d7942586e344b466f336e506d392b505151704d524d6a6f6567354e41554f6568583049467a306742634b6d52794b487a4f317938746c385145716f68534b304a6f5838472b62383264492b443548557767436a6f526e4233795333364f614765357364595a58794f44584a6d6e514262466d2f69315357326c304c4d744c6c314f4951705a366151537458487233446f704c63374c4d784770306c70794e66493138445832525a6c56536536356a6e70666432624766726b304b746b566f3656767a587536745962652f586c513836494f416f7a6755725a4e78416f725a63586d75432f74476a4957794b6b48557444427038336f447642796a76494a5835737671593442527154476549794d4c314c366763747571316b6e32436a5343736d426638646e53336375737065426d726a6158496f4831636b78314b503678735a49313056387341415661786d554b756b6a4b6338546742754e412b513663462f64397a734b4b476761323367556f516975436c7041786c4b576e6c677645474947576e65775645425166537a41705a4833617266693842434d373732385a6732736e41474d69704748625a7a44644278475062777845744778455a6b37426c635352364141547167545954324f707457304a724e514541793068714d5a412f3279627831756b4565496a4477784a695642465a75674e767439306c7135675936525a2b6f544444624f59497a6257485266684e4c4c6573616f49756952794b3955346645705a51417731565067553942596836495a3458517a6d7a664e476374527965697336676a2f715a79466766702b382f484a736235486a47542b70675a6543383066473374386e324a2f354856306c70502b72327a6a6366387562386e65695a43374f5a454a6f7a3446414173594d474373677774746750442b464b717233644e6875375a2b367730484e39774564365155783372582b336c726a57355644317866325a3568656d364f2b5161526a633961504876303130424150464e4e2b724d6e7035385a6e537136484d7a6a74356f6d6b4f48656f4841304a33727035745a7133482b71487a7030456946636a6952424b653762615932482b7247464d2b7a4c6d4c426d39326d7473534d31645957396c7a79676c32686648396c63755861356437315346596a32624d5257544256644152684e5674556567583834732b5a6b7a61316a787855636a784e62727142736f6b385a7a337a53414c4449376b335258767a783653384a2f72614156706c384d74647135616a653346717a6875366e527a5a56524b46776e52506d43712b584b6a773958715a574b466568697478496a2f4430566b53436c446d6570302f625944377749356a346d775067545336595a494a6e626575686d456b4f7a45644e554b786651747072686d56724b39376a33627a6b366a496b55376733384a4b454251724b702f54723052366c544c6b663838554f74313479546d5459615557303962335233314b6d34536846743732796a6f514e4854554a62395171677544305947643936464e4f50754d595168466576414f773055654c6c575557595432466e644b4c6e71575665564b58383571394372327246504467674c4c6830345846744a64504b655749627a6776423936432b584b4264624865536575534d444f36736a6f61616b3335736d48695862654e3361675a6556364762674b52494b2b7773302b6869354870342b5855794648376f2f705a6c716e50526a6b4d5a63693269714e41794b3472336b6479494271694a74352b43357152312b76704457517031783779584b38316f545670726a313752444559464d57394d39796a326d7251317052633954734965764d714e726e73694e73355763646c4e53356475584c707a61477a6d362f654c306e7a6e717039635050544b466676412f59783769796541387243617467777a77504a764d6c2b6c4f36794f2b4e6d584c784a656c75726259776b626548344d4d2b6441646a33347457726c6c794c572f7a6f38504e4c766c30554c7a68613979424259636456636249726f5665743572694262624d6b506345782f346c3972645579654464616e5a696a63646c374c512b58726c36353146335166376962635063665675413550732b486765584c47313373743947337547754f4d2b5a5430586350636d5a486672636f746f7669303473595646337a7a6c324478584a5851676c5554627230576e2f2b7a62564a70694f692b4a32754f4652794b7932544756692b504e44647552576d417a4470665532644f38316867377a70392f37744a7974427a6e724d63556d614a556d703151572f51726e6d68784b782f686c677159766359766b4e58662b582b4a48744a71754d4c71756e6f5038777050634f4c334276357a7036336c7850665653535a6b6a53583450316739613139686e3274645a2f79476931314e6731776343795a5333644c576e46414a76577a3953784377384f2b4d51793567534b376a54326867395070564a6a462b2b463262784b30624939433037367862786d30766531566366487856663745354e4d5a324f6368556c5438704f634d65654539334b6f2b6d4e575635492f692b5076492b2b347a79726a333133546156314d462b4b67613367422b61735450736f466a672f78334965534e436d706a367661682f787550717659433075552b754b626c757041364e624b3155756a636957377a306570647078714f365164615639634a6776694b632b467a447973653463334854667a3732774337595849454d382f5a56424a31354c4b494f4e2f4e76684c6d2b6639437a50544c38706e79527043777241426c2f4d713145357136565a4557596846734f65383461526d2f6a557433304b3163507976356a72777937434b44564342336e7a356866703677686641374553584e657955326d436a6435505449424d58543631636d6575794b3133706e6669436f73594833436e44587975726a786d79697a3951524a38783730496a4279303553412b5635754a342f674c50687a6a2b466b5146665a53374c634d4b44557a32502f2b6f5157435266335a3359353931444e3278715645594a7a54797973773655647770396a487547342f4876616564505a34656265596178324f627452394d556f7a7a454e375a766865376e52724736587932654e58714a64314574365a6d4e742b5a58582f63757a4d48594439376d3371502b476f5548686e576e2b757a2b7133746e6c4648592b2b5036497467422f686878617374686b5a724f4e3735726d77683455554f5359375434305071702f6a6e6a2f4f624a476d4d4a476d756235705a644332553464497a466f6b747835765a576d30784e7a6558356c3170466c62685955386f4831374538773868796f6477696432484c3763674c41746b6c47612b356d43724c754152463061784530755362634f664b6858764c71526b69646239516f4e717a6b4456696f454e776e35724969585466364e72464534496a596c555854474f57327a3737565953333657674f2f593243463668675737597134783637624c6139396b734f4b366b644662375561465239646f6d3165777439554c496269334e2b61744a313075622f376a704c324e49324c627a78713462323841316871634c482b76476176663971336e4867596637482b34772f7970674a2f4f6237415a44394e583151622b663653764c43594f39795442373856756965454155333072722f39664b784c446c45316244686849787a42796a474a7834773761663534357a574c7a67346f437334506d6e48485a47424c582b6e63766c322f3672446f365751396454374a656b426b6d3655573264396f6a5968564948314e7166777163543557536c332b384550683433793065734c74352f705876757763752b684d432f4a6345487631506a36484d79304d5938307041577a553853482f343741692b4578714e5755645a6749527530315a752f612b786d4c3146444b534a526f645058714a374151634d6a704156544753597656495a57344544327342666a535a423645577a76356933494f73435478446269636535517067443078733757615956364c4b3378745456703146354d47744c316c615968705358736d526a31486c6b45396f6b6f476c75496135796e675073644258594f384f6f56586e55756a6c6d77336c7531334d466d754c5247535774546b45724834546b41304c694d6c6755573652373269445a34336d7943416332387a3657726a4465634b3461624d4432474b4b4f427a43395449312f314453524a38677153457451583454577730587233683456324837536a4d6e49444d784a6f6757414b6a67617a2b4251794463687133754a2b4a55425668586c2b4a6c58796774634f6d7375623041686f58463770782b47414c4a35366c61474743636d5750696a4c39306e73437a7650394551576246554e644b4764614f75536e4e6f396e51437a657a33627161736b4e7747737a6e626c5a3668416362443534736d61567771314d4f7053315937553741554f493274384e43617a776f704d445661624b67744971434d6d6e79466c364e51327064515a63456b4865316c516478642b70484e64686430676c556d516376386d694c5653634349752b7a3578675250313048324e4d6a4e54335959624b4a304d584d4345653169786e69574464356c4f49414c66624d57656c797075516e39796e664f6f324632353254635938786b5566765a5a474461694a3459446f4b416279395246393842714f565938486757692b575752717a6c665a646b616f717764592f492b5543636b712b3231597150576b466641596455704b72714b78536d4e496e517777446a494d367935492f426744444e6f55726268636e755942452b6862414c64444d656854444e6a3066495055456d3651356f4e3130734e5a2b344b476c4f647059565433316836355251454c6b42377a79376857414856736a6e456f6e424641465754686b47646f4e5a6841635a4d356944594257526b4441747a5653735567425a3144416b46354b43544e465a636b6b41447756777a446764536e7570743565512f364741653064594a585a4239423376705948336665326c48676c6f54465241597451375957686a6b735772486765716156376f616d6650504f434d69776c31797a4e393768584f423654574e5649447153434e704a54564679747374733359764f304d4373794c497036514f486373497572624550552b30656161735a714a6b53776354444e4a626b565a4d594e456f5566784d487561465359715435776d326e777539576f303058796253536a66594f53467139782f7848554f54586e59626867617748524c4b65644d4565455372303637626b6c6b473636317947505a63487a38334f67646d4b464579627243734c305043304358774e5874456b32445745466e5151414d4765354355636d43344e5769506164446f4c563971563567556b69736a516242675556694b505a62756e67595343657942594159446e7047714753364a6d79592f424255457535796e6b617a596f41514a4c456b6d423553524a43586255776b4774614853576d424c7742346456557a634a49424964576271654a613141755a63737a524d4b4f3569756c5664787179597a556f4f326552372b52455a6d6566427a556c71534f4277334a396b3031554f4e7a7264565a6f587862733553655646316d6b6a4f4341675742726c724449673439306f31364b784d7873636c496e6b7a545354525a6b6b7955466c746d79704f536f6834443153646d754f5462464f4f4462733967616346642f374b4331545a622f4c434e4e6564517157476c5a6a5033782b6a305848306d4d70446453674e326834355157797364353736346252484d766658587a354f7876392f43472f2f364f2b7351443456344744516432613673593659494942346446687958386259646f4871685144366e714a4c7558392b424a4176675576476c3672797a45307a74414f4e4c6361485244446654716b36544332365946596656674f593449476c566d4437562f713230583861335559514e73395933426966692b382b314864786e7a70705661466c38646d4e6f54516133454741775669444376443257725a41433762473570483676476d7a57335837514e653965364932705432457a67784e714e69774541455a494569754a4542716168546a57646544726668537a6a5549774238414135464a4e4b65496f62785378465834484b525941706a6b65534f496b464a656e7378676a462b4b394b79346e3778434a734a78614f754d3664346a4d68787a78305835367a7a50744d674a7431366d5734477a32756141736662685162565a4c774c577873676d5a635768704e4f5042705176334868524367437849552f78624a6c5657723371736a7539635a785432445668474373324f5968666a456130794463666f67753741596369626f527865794570697050544e6d543766536148475a5a7a70454a764c574776634667745036652f376631636876644c694e7878316451507a4c6445707a74306a4c306542647133517a426d314b62457132366b367733482f684f685a4159766d42666d5379515075314e332b5046654c5754533977664b43456650426d695077344c4f64442f5479665a4e4e686f463331344a2f475730327055454e6c344e5346635751303159485453444574674d306e4a376d3252327668746945384c70746d5749532f7657527a375337674552456144434449636a635554795651366b38336c433556717264356f747471646271382f47434b36764d6c304e6c3873562b764e39766a4b44524749524e5366793458434c364b52436a462f4e6a2b6c534b5346647568414f715248556454344b5a345a457a4c584732664a356b36626d4a46526b6a48536572745a7a73386765716165705766724f5871756e71666e367756365961376b7a73794d527162696638786d6a78733965384c6e526c5a666b73733148796657367a76302f344157777143676648684647304b4c4b7476362f75553743716f727161365453744e584752394d6f7a737249496934506b45387558637767746672416f526d414a6138684a4366396f6a4c553253536430464a74674a53314451496b535042525a534143552b61436a564a6d4961534e67584746726f7130614b44676970386f643374716e6644626350377a764e454c71337a4749306a383146626b77467274526247374b4368552f6456622f33663650717164656f6552616c58764d71674c686b3d",
  "devdoc": {
    "kind": "dev",
    "methods": {
      "owner()": {
        "details": "Returns the address of the current owner."
      },
      "renounceOwnership()": {
        "details": "Leaves the contract without owner. It will not be possible to call `onlyOwner` functions. Can only be called by the current owner. NOTE: Renouncing ownership will leave the contract without an owner, thereby disabling any functionality that is only available to the owner."
      },
      "transferOwnership(address)": {
        "details": "Transfers ownership of the contract to a new account (`newOwner`). Can only be called by the current owner."
      }
    },
    "version": 1
  },
  "userdoc": {
    "kind": "user",
    "methods": {},
    "version": 1
  },
  "storageLayout": {
    "storage": [
      {
        "astId": 7,
        "contract": "contracts/Beef.sol:Beef",
        "label": "_owner",
        "offset": 0,
        "slot": "0",
        "type": "t_address"
      },
      {
        "astId": 2244,
        "contract": "contracts/Beef.sol:Beef",
        "label": "name",
        "offset": 0,
        "slot": "1",
        "type": "t_string_storage"
      },
      {
        "astId": 2246,
        "contract": "contracts/Beef.sol:Beef",
        "label": "symbol",
        "offset": 0,
        "slot": "2",
        "type": "t_string_storage"
      },
      {
        "astId": 2250,
        "contract": "contracts/Beef.sol:Beef",
        "label": "getApproved",
        "offset": 0,
        "slot": "3",
        "type": "t_mapping(t_uint256,t_address)"
      },
      {
        "astId": 2256,
        "contract": "contracts/Beef.sol:Beef",
        "label": "isApprovedForAll",
        "offset": 0,
        "slot": "4",
        "type": "t_mapping(t_address,t_mapping(t_address,t_bool))"
      },
      {
        "astId": 2260,
        "contract": "contracts/Beef.sol:Beef",
        "label": "_ownerOf",
        "offset": 0,
        "slot": "5",
        "type": "t_mapping(t_uint256,t_address)"
      },
      {
        "astId": 2264,
        "contract": "contracts/Beef.sol:Beef",
        "label": "_balanceOf",
        "offset": 0,
        "slot": "6",
        "type": "t_mapping(t_address,t_uint256)"
      },
      {
        "astId": 291,
        "contract": "contracts/Beef.sol:Beef",
        "label": "totalSupply",
        "offset": 0,
        "slot": "7",
        "type": "t_uint256"
      },
      {
        "astId": 294,
        "contract": "contracts/Beef.sol:Beef",
        "label": "editionSize",
        "offset": 0,
        "slot": "8",
        "type": "t_uint256"
      },
      {
        "astId": 372,
        "contract": "contracts/Beef.sol:Beef",
        "label": "concepts",
        "offset": 0,
        "slot": "9",
        "type": "t_mapping(t_uint256,t_struct(Concept)2929_storage)"
      },
      {
        "astId": 376,
        "contract": "contracts/Beef.sol:Beef",
        "label": "tokenIdToConcept",
        "offset": 0,
        "slot": "10",
        "type": "t_mapping(t_uint256,t_uint256)"
      },
      {
        "astId": 446,
        "contract": "contracts/Beef.sol:Beef",
        "label": "sameBlockAt",
        "offset": 0,
        "slot": "11",
        "type": "t_mapping(t_uint256,t_uint256)"
      },
      {
        "astId": 450,
        "contract": "contracts/Beef.sol:Beef",
        "label": "sameBlockTo",
        "offset": 0,
        "slot": "12",
        "type": "t_mapping(t_uint256,t_address)"
      },
      {
        "astId": 453,
        "contract": "contracts/Beef.sol:Beef",
        "label": "fairPrice",
        "offset": 0,
        "slot": "13",
        "type": "t_uint256"
      },
      {
        "astId": 456,
        "contract": "contracts/Beef.sol:Beef",
        "label": "increasable",
        "offset": 0,
        "slot": "14",
        "type": "t_uint96"
      },
      {
        "astId": 459,
        "contract": "contracts/Beef.sol:Beef",
        "label": "decreasable",
        "offset": 12,
        "slot": "14",
        "type": "t_uint96"
      },
      {
        "astId": 462,
        "contract": "contracts/Beef.sol:Beef",
        "label": "transfersLeft",
        "offset": 0,
        "slot": "15",
        "type": "t_uint256"
      },
      {
        "astId": 2235,
        "contract": "contracts/Beef.sol:Beef",
        "label": "font",
        "offset": 0,
        "slot": "16",
        "type": "t_string_storage"
      }
    ],
    "types": {
      "t_address": {
        "encoding": "inplace",
        "label": "address",
        "numberOfBytes": "20"
      },
      "t_array(t_bytes32)dyn_storage": {
        "base": "t_bytes32",
        "encoding": "dynamic_array",
        "label": "bytes32[]",
        "numberOfBytes": "32"
      },
      "t_bool": {
        "encoding": "inplace",
        "label": "bool",
        "numberOfBytes": "1"
      },
      "t_bytes32": {
        "encoding": "inplace",
        "label": "bytes32",
        "numberOfBytes": "32"
      },
      "t_mapping(t_address,t_bool)": {
        "encoding": "mapping",
        "key": "t_address",
        "label": "mapping(address => bool)",
        "numberOfBytes": "32",
        "value": "t_bool"
      },
      "t_mapping(t_address,t_mapping(t_address,t_bool))": {
        "encoding": "mapping",
        "key": "t_address",
        "label": "mapping(address => mapping(address => bool))",
        "numberOfBytes": "32",
        "value": "t_mapping(t_address,t_bool)"
      },
      "t_mapping(t_address,t_uint256)": {
        "encoding": "mapping",
        "key": "t_address",
        "label": "mapping(address => uint256)",
        "numberOfBytes": "32",
        "value": "t_uint256"
      },
      "t_mapping(t_uint256,t_address)": {
        "encoding": "mapping",
        "key": "t_uint256",
        "label": "mapping(uint256 => address)",
        "numberOfBytes": "32",
        "value": "t_address"
      },
      "t_mapping(t_uint256,t_struct(Concept)2929_storage)": {
        "encoding": "mapping",
        "key": "t_uint256",
        "label": "mapping(uint256 => struct ConceptStruct.Concept)",
        "numberOfBytes": "32",
        "value": "t_struct(Concept)2929_storage"
      },
      "t_mapping(t_uint256,t_uint256)": {
        "encoding": "mapping",
        "key": "t_uint256",
        "label": "mapping(uint256 => uint256)",
        "numberOfBytes": "32",
        "value": "t_uint256"
      },
      "t_string_storage": {
        "encoding": "bytes",
        "label": "string",
        "numberOfBytes": "32"
      },
      "t_struct(Concept)2929_storage": {
        "encoding": "inplace",
        "label": "struct ConceptStruct.Concept",
        "members": [
          {
            "astId": 2915,
            "contract": "contracts/Beef.sol:Beef",
            "label": "_editionTokenRangeStart",
            "offset": 0,
            "slot": "0",
            "type": "t_uint256"
          },
          {
            "astId": 2917,
            "contract": "contracts/Beef.sol:Beef",
            "label": "_editionSize",
            "offset": 0,
            "slot": "1",
            "type": "t_uint256"
          },
          {
            "astId": 2919,
            "contract": "contracts/Beef.sol:Beef",
            "label": "_title",
            "offset": 0,
            "slot": "2",
            "type": "t_bytes32"
          },
          {
            "astId": 2922,
            "contract": "contracts/Beef.sol:Beef",
            "label": "_bodyText",
            "offset": 0,
            "slot": "3",
            "type": "t_array(t_bytes32)dyn_storage"
          },
          {
            "astId": 2925,
            "contract": "contracts/Beef.sol:Beef",
            "label": "_smallPrintText",
            "offset": 0,
            "slot": "4",
            "type": "t_array(t_bytes32)dyn_storage"
          },
          {
            "astId": 2928,
            "contract": "contracts/Beef.sol:Beef",
            "label": "_statusText",
            "offset": 0,
            "slot": "5",
            "type": "t_array(t_bytes32)dyn_storage"
          }
        ],
        "numberOfBytes": "192"
      },
      "t_uint256": {
        "encoding": "inplace",
        "label": "uint256",
        "numberOfBytes": "32"
      },
      "t_uint96": {
        "encoding": "inplace",
        "label": "uint96",
        "numberOfBytes": "12"
      }
    }
  }
}